:020000040800F2
:100000000050002061030008B3030008BF0300088C
:10001000C7030008CF030008D70300080000000052
:10002000000000000000000000000000DF030008E6
:10003000EB03000800000000F703000803040008B9
:10004000A9030008A9030008A9030008A9030008E0
:10005000A9030008A9030008A9030008A9030008D0
:10006000A9030008A9030008A9030008A9030008C0
:10007000A9030008A9030008A9030008A9030008B0
:10008000A9030008A9030008A9030008A9030008A0
:10009000A9030008A9030008A9030008A903000890
:1000A000A9030008A9030008A9030008A903000880
:1000B000A9030008A9030008A9030008A903000870
:1000C000A9030008A9030008A9030008A903000860
:1000D000A9030008A9030008A9030008A903000850
:1000E000A9030008A9030008A9030008A903000840
:1000F000A9030008A9030008A9030008A903000830
:10010000A9030008A9030008A9030008A90300081F
:10011000A9030008A9030008A9030008A90300080F
:10012000A9030008A9030008A9030008A9030008FF
:1001300000000000A9030008A9030008A9030008A3
:04014000A903000807
:100144000348044B834202D0034B03B11847704762
:100154000000002000000020000000000548064BBD
:100164001B1AD90F01EBA301491002D0034B03B1B1
:100174001847704700000020000000200000000025
:1001840010B5064C237843B9FFF7DAFF044B13B1DB
:100194000448AFF300800123237010BD0000002049
:1001A400000000001004000808B5054B1BB1054908
:1001B4000548AFF30080BDE80840FFF7CFBF00BF9C
:1001C40000000000040000201004000870B50026A0
:1001D4000C4D0D4B5B1B9C10A64209D1002600F070
:1001E40015F90A4D0A4B5B1B9C10A64205D170BD44
:1001F40055F8043B98470136EEE755F8043B984719
:100204000136F2E72804000828040008280400083E
:100214002C04000880B500AF144A136843F00103AE
:100224001360124B5A681149114B13404B600F4B2A
:100234001B680E4A23F0847323F4803313600B4A43
:10024400136823F480231360084B5B68074A23F484
:10025400FE035360054B4FF41F029A6000F00CF844
:10026400044B4FF000629A6000BF80BD0010024052
:100274000000FFF800ED00E080B500AF00F002F8E8
:1002840000BF80BD80B483B000AF324A136843F42A
:100294008033136000237B6009E02E4B1B68C3F39B
:1002A4004043DBB2002B07D17B6801337B607B6862
:1002B400B3F5A04FF1D300E000BF264B1B68C3F396
:1002C4004043DBB2002B40D0234A136843F01003B1
:1002D4001360214A1368022161F3020313601D4A6B
:1002E400536823F0F00353601A4A536823F46053AD
:1002F4005360184A5368042161F30A235360154A72
:10030400536843F480335360124A5368072161F3FE
:10031400954353600F4A136843F08073136000BF22
:100324000C4B1B68C3F34063DBB2002BF8D0094AC3
:100334005368022161F30103536000BF054B5B68FE
:10034400C3F38103DBB2022BF8D100BF0C37BD46E7
:1003540080BC704700100240002002400C480D4948
:100364000D4A002302E0D458C4500433C4188C420C
:10037400F9D30A4A0A4C002301E013600432A24272
:10038400FBD3FFF747FFFFF721FF00F00CF870479E
:1003940000000020000000203004000800000020BD
:1003A4001C000020FEE780B400AF00BFFDE780B46E
:1003B40000AF00BFBD4680BC704780B400AF00BF33
:1003C400FDE780B400AF00BFFDE780B400AF00BF1D
:1003D400FDE780B400AF00BFFDE780B400AF00BF0D
:1003E400BD4680BC704780B400AF00BFBD4680BC32
:1003F400704780B400AF00BFBD4680BC704780B476
:1004040000AF00BFBD4680BC70470000F8B500BF18
:10041400F8BC08BC9E467047F8B500BFF8BC08BCE1
:040424009E46704739
:04042800AD0100081A
:04042C00850100083E
:04000005080003618B
:00000001FF
